:100000000C9486000C94B7000C94B7000C94B700C5
:100010000C94B7000C94B7000C94B7000C94B70084
:100020000C94B7000C94B7000C94B7000C94B70074
:100030000C94B7000C94B7000C94B7000C94B70064
:100040000C94B7000C94B7000C94B7000C94B70054
:100050000C94B7000C94B7000C94B7000C94DB021E
:100060000C94B7000C94A5020C947B020C94B7007E
:100070000C94B7000C94B7000C94B7000C94B70024
:100080000C94B7000C94B7000C94B7000C94B70014
:100090000C94B7000C94B7000C94B7000C94B70004
:1000A0000C94B7000C94B7000C94B7000C94B700F4
:1000B0000C94B7000C94B7000C94B7000C94B700E4
:1000C0000C94B7000C94B7000C94B7000C94B700D4
:1000D0000C94B7000C94B7000C94B7000C94B700C4
:1000E0000C94B7000C94E7000C9490010C94BA00A7
:1000F0000C94F6000C94DD010C9458010C9425032B
:100100000C94F9040C944A012503F90411241FBE30
:10011000CFEFD1E2DEBFCDBF00E00CBF22E0AAE10D
:10012000B2E001C01D92AA3CB207E1F712E0A0E0E4
:10013000B2E0E4E6FEE000E00BBF02C007900D92E3
:10014000AA31B107D9F710E0C5E8D0E000E006C059
:1001500021970109802FFE010E940205C438D107B2
:1001600080E00807A9F70E949B030C9420070C94D9
:1001700000000895AF92BF92CF92DF92EF92FF926C
:100180000F931F93CF93DF936C017B018B01040FBF
:10019000151FEB015E01AE18BF08C017D10759F05B
:1001A0006991D601ED91FC910190F081E02DC6019D
:1001B0001995892B79F7C501DF91CF911F910F9187
:1001C000FF90EF90DF90CF90BF90AF900895FC012B
:1001D000538D448D252F30E0842F90E0821B930BAC
:1001E000541710F0CF96089501970895FC01918D52
:1001F000828D981761F0A28DAE0FBF2FB11D5D9655
:100200008C91928D9F5F9F73928F90E008958FEFF6
:100210009FEF08952FB7F89480911F0290912002CC
:10022000A0912102B09122022FBF80932B029093C4
:100230002C02A0932D02B0932E0283E292E00E9442
:10024000F60097FF26C02FB7F89480911F02909177
:100250002002A0912102B09122022FBF40912B02D7
:1002600050912C0260912D0270912E02841B950BEF
:10027000A60BB70B409127025091280260912902EA
:1002800070912A0284179507A607B707B0F28FEF7F
:100290009FEF0895FC01918D828D981731F0828D2A
:1002A000E80FF11D858D90E008958FEF9FEF089581
:1002B000FC01918D228D892F90E0805C9F4F821BE5
:1002C00091098F739927089583E292E00E94580163
:1002D00021E0892B09F420E0822F0895FC01A48DF0
:1002E000A80FB92FB11DA35ABF4F2C91848D90E058
:1002F00001968F739927848FA689B7892C93A0893B
:10030000B1898C91837080648C93938D848D9813C4
:1003100006C00288F389E02D80818F7D8083089557
:10032000EF92FF920F931F93CF93DF93EC0181E045
:10033000888F9B8D8C8D98131AC0E889F9898081EC
:1003400085FF15C09FB7F894EE89FF896083E8891F
:10035000F98980818370806480839FBF81E090E011
:10036000DF91CF911F910F91FF90EF900895F62E9E
:100370000B8D10E00F5F1F4F0F731127E02E8C8D38
:100380008E110CC00FB607FCFACFE889F98980817D
:1003900085FFF5CFCE010E946E01F1CFEB8DEC0F02
:1003A000FD2FF11DE35AFF4FF0829FB7F8940B8F9A
:1003B000EA89FB8980818062CFCFCF93DF93EC0104
:1003C000888D8823B9F0AA89BB89E889F9898C913D
:1003D00085FD03C0808186FD0DC00FB607FCF7CFF9
:1003E0008C9185FFF2CF808185FFEDCFCE010E94F9
:1003F0006E01E9CFDF91CF91089580E090E0892BE5
:1004000029F00E94640181110E94000080E090E0C8
:10041000892B49F080E090E0892B29F00E940000B0
:1004200081110E94000080E090E0892B49F080E07B
:1004300090E0892B29F00E94000081110E940000A9
:1004400080E090E0892B49F080E090E0892B29F052
:100450000E94000081110C94000008953FB7F894A9
:1004600080911B0290911C02A0911D02B0911E026E
:1004700026B5A89B05C02F3F19F00196A11DB11DFF
:100480003FBFBA2FA92F982F8827BC01CD01620F3B
:10049000711D811D911D42E0660F771F881F991FF6
:1004A0004A95D1F708950F931F93CF93DF93EC01F3
:1004B00088819981009759F02A813B812617370757
:1004C00030F081E0DF91CF911F910F9108958B0162
:1004D0006F5F7F4F0E942F06009759F099838883A2
:1004E0001B830A832C813D81232B59F7FC01108249
:1004F000E8CF80E0E7CF1F920F920FB60F92112442
:100500000BB60F922F933F934F935F936F937F930D
:100510008F939F93AF93BF93EF93FF9383E292E008
:100520000E946E01FF91EF91BF91AF919F918F91CA
:100530007F916F915F914F913F912F910F900BBEE3
:100540000F900FBE0F901F9018951F920F920FB62D
:100550000F9211240BB60F922F938F939F93EF93CB
:10056000FF93E0913302F09134028081E0913902EF
:10057000F0913A0282FD1DC0908180913C028F5F14
:100580008F7320913D02821741F0E0913C02F0E030
:10059000ED5DFD4F958F80933C02FF91EF919F9110
:1005A0008F912F910F900BBE0F900FBE0F901F9049
:1005B00018958081F2CF1F920F920FB60F921124DF
:1005C0002F933F938F939F93AF93BF9380911F027D
:1005D00090912002A0912102B091220230911A0242
:1005E00023E0230F2D3758F50196A11DB11D20934F
:1005F0001A0280931F0290932002A0932102B093CD
:10060000220280911B0290911C02A0911D02B091C8
:100610001E020196A11DB11D80931B0290931C0226
:10062000A0931D02B0931E02BF91AF919F918F9135
:100630003F912F910F900FBE0F901F90189526E8B5
:10064000230F0296A11DB11DD2CF10922602109247
:10065000250288EE93E0A0E0B0E08093270290931B
:100660002802A0932902B0932A028AE092E0909394
:1006700024028093230285EC90E0909330028093D3
:100680002F0284EC90E0909332028093310280EC50
:1006900090E0909334028093330281EC90E0909349
:1006A00036028093350282EC90E09093380280937A
:1006B000370286EC90E090933A02809339021092D0
:1006C0003C0210923D0210923E0210923F021092A4
:1006D000C1021092C0021092C3021092C202109284
:1006E000C5021092C40270E060E080EC92E00E94CB
:1006F00053022091C0023091C102811113C0211513
:10070000310519F0C9010E94A6051092C10210928C
:10071000C0021092C5021092C4021092C30210923D
:10072000C20208951092C5021092C40268E172E0FC
:10073000C9010C941907CF93DF9300D000D01F920A
:100740001F92CDB7DEB7789484B5826084BD84B53E
:10075000816084BD85B5826085BD85B5816085BDBC
:1007600080916E00816080936E0010928100809174
:1007700081008260809381008091810081608093FC
:100780008100809180008160809380008091B10021
:1007900084608093B1008091B00081608093B0004C
:1007A000809191008260809391008091910081609E
:1007B000809391008091900081608093900080915F
:1007C000A10082608093A1008091A100816080934C
:1007D000A1008091A00081608093A0008091210100
:1007E00082608093210180912101816080932101A9
:1007F0008091200181608093200180917A00846043
:1008000080937A0080917A00826080937A00809150
:100810007A00816080937A0080917A00806880936A
:100820007A001092C100E0913302F091340282E02C
:100830008083E0912F02F09130021082E09131022A
:10084000F09132028FEC808310923B02E0913702EC
:10085000F091380286E08083E0913502F091360213
:10086000808180618083E0913502F0913602808141
:1008700088608083E0913502F09136028081806843
:100880008083E0913502F091360280818F7D8083F4
:1008900083E292E00E945801181619060CF069C014
:1008A0001A8219821C821B821E821D8270E060E007
:1008B000CE0101960E94530229813A8181112BC0F9
:1008C0002115310519F0C9010E94A6051A82198265
:1008D0001E821D821C821B820E940A0197FD23C07A
:1008E0008F8318860D811E810F5F1F4FB801CE01C7
:1008F00001960E945302882379F329813A818D81E0
:100900009E81BE01695F7F4F820F931F0E9419076E
:100910001E830D83E1CF1E821D8268E172E0C90152
:100920000E941907D9CF8091C0029091C10200970F
:1009300009F448C069817A816115710509F440C0E4
:100940004091C2025091C3022D813E81421753074C
:10095000B8F10E9419078D819E819093C502809302
:10096000C4021E821D8289819A81009711F00E9423
:10097000A6050E942E024B015C0184E6C82ED12CF4
:10098000E12CF12C0E942E02681979098A099B0931
:10099000683E734081059105A8F321E0C21AD10891
:1009A000E108F10888EE880E83E0981EA11CB11CB6
:1009B000C114D104E104F10429F70E94FD0168CFBC
:1009C0000E94A60589819A819093C1028093C002FA
:1009D0008B819C819093C3028093C2028D819E8102
:1009E0009093C5028093C4021A8219821C821B82D2
:1009F000B8CF8091C0029091C102009711F00C9481
:100A0000A6050895EE0FFF1F881F8BBF0790F69174
:100A1000E02D19940F931F93CF93DF9382309105AC
:100A200010F482E090E0E091C802F091C90230E059
:100A300020E0B0E0A0E0309799F42115310509F4E9
:100A40004AC0281B390B24303105D8F58A819B8197
:100A50006115710589F1FB0193838283FE0111C049
:100A6000408151810281138148175907E0F04817EE
:100A7000590799F4109761F012960C9312971396F8
:100A80001C933296CF01DF91CF911F910F91089562
:100A90000093C8021093C902F4CF2115310551F01B
:100AA0004217530738F0A901DB019A01BD01DF01AC
:100AB000F801C1CFEF01F9CF9093C9028093C8022A
:100AC000CDCFFE01E20FF31F8193919322503109A4
:100AD00039832883D7CF2091C6023091C702232BB8
:100AE00041F420910202309103023093C702209317
:100AF000C60220910002309101022115310541F416
:100B00002DB73EB74091040250910502241B350BCE
:100B1000E091C602F091C702E217F307A0F42E1B82
:100B20003F0B2817390778F0AC014E5F5F4F241751
:100B3000350748F04E0F5F1F5093C7024093C6021F
:100B4000819391939FCFF0E0E0E09CCFCF93DF9330
:100B50000097E9F0FC01329713821282A091C8023B
:100B6000B091C902ED0130E020E01097A1F420819E
:100B70003181820F931F2091C6023091C70228173E
:100B8000390709F061C0F093C702E093C602DF9114
:100B9000CF910895EA01CE17DF07E8F54A815B811E
:100BA0009E0141155105B1F7E901FB83EA834991A3
:100BB0005991C40FD51FEC17FD0761F48081918115
:100BC0000296840F951FE90199838883828193811E
:100BD0009B838A83F0E0E0E012968D919C911397BD
:100BE0000097B9F52D913C911197CD010296820F96
:100BF000931F2091C6023091C7022817390739F692
:100C0000309751F51092C9021092C802B093C702F2
:100C1000A093C602BCCFD383C28340815181840F8D
:100C2000951FC817D90761F44E5F5F4F888199817E
:100C3000480F591F518340838A819B81938382830C
:100C40002115310509F0B0CFF093C902E093C80235
:100C50009ECFFD01DC01C0CF13821282D7CF4F920D
:100C60005F926F927F928F929F92AF92BF92CF923C
:100C7000DF92EF92FF920F931F93CF93DF938C013C
:100C8000009799F4CB01DF91CF911F910F91FF90C5
:100C9000EF90DF90CF90BF90AF909F908F907F901C
:100CA0006F905F904F900C940A05FC01E60FF71FC0
:100CB0009C0122503109E217F30708F4AEC0D901B4
:100CC000CD91DC911197C617D70720F1C530D1051A
:100CD00078F0CE0104978617970750F0C61BD70B04
:100CE0002297C193D1936D937C93CF010E94A60567
:100CF000C801DF91CF911F910F91FF90EF90DF908E
:100D0000CF90BF90AF909F908F907F906F905F90AB
:100D10004F9008955B01AC1ABD0A4C018C0E9D1ECC
:100D2000A091C802B091C902512C412CF12CE12CA8
:100D3000109731F58091C6029091C70288159905E8
:100D400009F05CC04616570608F058C080910002B2
:100D500090910102009741F48DB79EB74091040233
:100D600050910502841B950BE817F90708F055C050
:100D7000F093C702E093C602F90171836083B8CF94
:100D80008D919C91119712966C90129713967C906E
:100D90001397A815B90559F56C0142E0C40ED11C92
:100DA000CA14DB0420F1AC014A195B09DA0112967E
:100DB000159780F06282738251834083D9016D93CD
:100DC0007C93E114F10471F0D7011396FC93EE9338
:100DD00012978ECF22968C0F9D1FF90191838083ED
:100DE000F301EFCFF093C902E093C80281CF481618
:100DF000590608F42C017D01D3019ACFCB010E9442
:100E00000A057C01009749F0AE01B8010E94100765
:100E1000C8010E94A60587016BCF10E000E068CFF3
:100E2000FB01DC0102C001900D9241505040D8F707
:100E30000895FB01DC0101900D920020E1F7089577
:100E400010E0C5E8D0E000E006C0802FFE010E945F
:100E500002052196011DC638D10780E00807A9F7D1
:040E6000F894FFCF34
:100E64000000CA028000000000009001BA00E70000
:0A0E7400DD015801F6004A010000FC
:00000001FF
