:100000000C9483000C94B4000C94B4000C94B400D1
:100010000C94B4000C94B4000C94B4000C94B40090
:100020000C94B4000C94B4000C94B4000C94B40080
:100030000C94B4000C94B4000C94B4000C94B40070
:100040000C94B4000C94B4000C94B4000C94B40060
:100050000C94B4000C94B4000C94B4000C94D7022B
:100060000C94B4000C94A1020C9477020C94B4008C
:100070000C94B4000C94B4000C94B4000C94B40030
:100080000C94B4000C94B4000C94B4000C94B40020
:100090000C94B4000C94B4000C94B4000C94B40010
:1000A0000C94B4000C94B4000C94B4000C94B40000
:1000B0000C94B4000C94B4000C94B4000C94B400F0
:1000C0000C94B4000C94B4000C94B4000C94B400E0
:1000D0000C94B4000C94B4000C94B4000C94B400D0
:1000E0000C94B4000C9446040C94F2000C9454014B
:1000F0000C94B6000C94D9010C948C010C94E30080
:100100000C944601460411241FBECFEFD1E2DEBF9E
:10011000CDBF00E00CBF22E0AAE1B2E001C01D9219
:10012000A43CB207E1F712E0A0E0B2E0E6E2FDE0B5
:1001300000E00BBF02C007900D92AA31B107D9F7BA
:1001400010E0C3E8D0E000E006C021970109802F4D
:10015000FE010E947304C238D10780E00807A9F7A6
:100160000E9421030C9491060C940000AF92BF9260
:10017000CF92DF92EF92FF920F931F93CF93DF9373
:100180006C017B018B01040F151FEB015E01AE18A2
:10019000BF08C017D10759F06991D601ED91FC91C4
:1001A0000190F081E02DC6011995892B79F7C501E1
:1001B000DF91CF911F910F91FF90EF90DF90CF9043
:1001C000BF90AF900895FC01538D448D252F30E0F2
:1001D000842F90E0821B930B541710F0CF96089554
:1001E00001970895FC01918D828D981761F0A28D81
:1001F000AE0FBF2FB11D5D968C91928D9F5F9F7347
:10020000928F90E008958FEF9FEF08952FB7F894A5
:1002100080911F0290912002A0912102B0912202B0
:100220002FBF80932B0290932C02A0932D02B093AA
:100230002E0283E292E00E94F20097FF26C02FB7C1
:10024000F89480911F0290912002A0912102B09118
:1002500022022FBF40912B0250912C0260912D025F
:1002600070912E02841B950BA60BB70B40912702B1
:10027000509128026091290270912A0284179507F3
:10028000A607B707B0F28FEF9FEF0895FC01918D9D
:10029000828D981731F0828DE80FF11D858D90E0E9
:1002A00008958FEF9FEF0895FC01918D228D892F86
:1002B00090E0805C9F4F821B91098F73992708956E
:1002C00083E292E00E94540121E0892B09F420E0AE
:1002D000822F0895FC01A48DA80FB92FB11DA35A38
:1002E000BF4F2C91848D90E001968F739927848F56
:1002F000A689B7892C93A089B1898C918370806479
:100300008C93938D848D981306C00288F389E02D19
:1003100080818F7D80830895EF92FF920F931F93CA
:10032000CF93DF93EC0181E0888F9B8D8C8D9813A8
:100330001AC0E889F989808185FF15C09FB7F894B4
:10034000EE89FF896083E889F98980818370806400
:1003500080839FBF81E090E0DF91CF911F910F914B
:10036000FF90EF900895F62E0B8D10E00F5F1F4F5A
:100370000F731127E02E8C8D8E110CC00FB607FC69
:10038000FACFE889F989808185FFF5CFCE010E94F7
:100390006A01F1CFEB8DEC0FFD2FF11DE35AFF4FFA
:1003A000F0829FB7F8940B8FEA89FB898081806285
:1003B000CFCFCF93DF93EC01888D8823B9F0AA8942
:1003C000BB89E889F9898C9185FD03C0808186FD10
:1003D0000DC00FB607FCF7CF8C9185FFF2CF80815F
:1003E00085FFEDCFCE010E946A01E9CFDF91CF9169
:1003F000089580E090E0892B29F00E94600181112E
:100400000E94000080E090E0892B49F080E090E0BD
:10041000892B29F00E94000081110E94000080E0D9
:1004200090E0892B49F080E090E0892B29F00E9430
:10043000000081110E94000080E090E0892B49F0CB
:1004400080E090E0892B29F00E94000081110C943B
:10045000000008953FB7F89480911B0290911C0210
:10046000A0911D02B0911E0226B5A89B05C02F3F8A
:1004700019F00196A11DB11D3FBFBA2FA92F982FCA
:100480008827BC01CD01620F711D811D911D42E0C5
:10049000660F771F881F991F4A95D1F708950F930C
:1004A0001F93CF93DF93EC0188819981009759F0D6
:1004B0002A813B812617370730F081E0DF91CF9109
:1004C0001F910F9108958B016F5F7F4F0E94A005D0
:1004D000009759F0998388831B830A832C813D817F
:1004E000232B59F7FC011082E8CF80E0E7CF1F9261
:1004F0000F920FB60F9211240BB60F922F933F93CA
:100500004F935F936F937F938F939F93AF93BF931B
:10051000EF93FF9383E292E00E946A01FF91EF91D3
:10052000BF91AF919F918F917F916F915F914F910B
:100530003F912F910F900BBE0F900FBE0F901F9009
:1005400018951F920F920FB60F9211240BB60F92AF
:100550002F938F939F93EF93FF93E0913302F0914A
:1005600034028081E0913902F0913A0282FD1DC08F
:10057000908180913C028F5F8F7320913D028217A2
:1005800041F0E0913C02F0E0ED5DFD4F958F8093EE
:100590003C02FF91EF919F918F912F910F900BBE95
:1005A0000F900FBE0F901F9018958081F2CF1F9271
:1005B0000F920FB60F9211242F933F938F939F9317
:1005C000AF93BF9380911F0290912002A0912102CE
:1005D000B091220230911A0223E0230F2D3758F5F3
:1005E0000196A11DB11D20931A0280931F029093C2
:1005F0002002A0932102B093220280911B029091CD
:100600001C02A0911D02B0911E020196A11DB11DF8
:1006100080931B0290931C02A0931D02B0931E02B4
:10062000BF91AF919F918F913F912F910F900FBEEE
:100630000F901F90189526E8230F0296A11DB11D5B
:10064000D2CFCF93DF9300D000D01F921F92CDB7AF
:10065000DEB7789484B5826084BD84B5816084BD42
:1006600085B5826085BD85B5816085BD80916E0050
:10067000816080936E001092810080918100826081
:1006800080938100809181008160809381008091BE
:1006900080008160809380008091B10084608093AD
:1006A000B1008091B00081608093B0008091910092
:1006B000826080939100809191008160809391008D
:1006C000809190008160809390008091A100826071
:1006D0008093A1008091A10081608093A10080910E
:1006E000A00081608093A0008091210182608093AE
:1006F000210180912101816080932101809120015D
:1007000081608093200180917A00846080937A00D8
:1007100080917A00826080937A0080917A00816073
:1007200080937A0080917A00806880937A0010929A
:10073000C100E0913302F091340282E08083E091C5
:100740002F02F09130021082E0913102F0913202DA
:100750008FEC808310923B02E0913702F0913802D7
:1007600086E08083E0913502F091360280818061DD
:100770008083E0913502F091360280818860808329
:10078000E0913502F0913602808180688083E091AB
:100790003502F091360280818F7D808383E292E082
:1007A0000E945401181619060CF049C01A821982C9
:1007B0001C821B821E821D8270E060E0CE010196C9
:1007C0000E944F0229813A8181112BC021153105E8
:1007D00019F0C9010E9417051A8219821E821D8212
:1007E0001C821B820E94060197FD23C08F831886FE
:1007F0000D811E810F5F1F4FB801CE0101960E942F
:100800004F02882379F329813A818D819E81BE012F
:10081000695F7F4F820F931F0E948A061E830D839C
:10082000E1CF1E821D8268E172E0C9010E948A0642
:10083000D9CF89819A81009711F00E9417050E94F3
:100840002A024B015C0184E6C82ED12CE12CF12C4C
:100850000E942A02681979098A099B09683E734037
:1008600081059105A8F321E0C21AD108E108F10839
:1008700088EE880E83E0981EA11CB11CC114D1041F
:10088000E104F10429F70E94F90188CFE3E2F2E0E4
:100890001382128288EE93E0A0E0B0E08483958317
:1008A000A683B7838AE092E09183808385EC90E011
:1008B0009587848784EC90E09787868780EC90E02A
:1008C000918B808B81EC90E0938B828B82EC90E01B
:1008D000958B848B86EC90E0978B868B118E128E95
:1008E000138E148E0895EE0FFF1F881F8BBF079085
:1008F000F691E02D19940F931F93CF93DF938230DD
:10090000910510F482E090E0E091C202F091C30200
:1009100030E020E0B0E0A0E0309799F421153105F7
:1009200009F44AC0281B390B24303105D8F58A81D7
:100930009B816115710589F1FB0193838283FE011F
:1009400011C0408151810281138148175907E0F09D
:100950004817590799F4109761F012960C93129763
:1009600013961C933296CF01DF91CF911F910F9177
:1009700008950093C2021093C302F4CF21153105EC
:1009800051F04217530738F0A901DB019A01BD016C
:10099000DF01F801C1CFEF01F9CF9093C30280933B
:1009A000C202CDCFFE01E20FF31F8193919322503B
:1009B000310939832883D7CF2091C0023091C102F9
:1009C000232B41F420910202309103023093C102A3
:1009D0002093C002209100023091010221153105BF
:1009E00041F42DB73EB74091040250910502241BFB
:1009F000350BE091C002F091C102E217F307A0F4B9
:100A00002E1B3F0B2817390778F0AC014E5F5F4F64
:100A10002417350748F04E0F5F1F5093C1024093D3
:100A2000C002819391939FCFF0E0E0E09CCFCF9301
:100A3000DF930097E9F0FC01329713821282A091B4
:100A4000C202B091C302ED0130E020E01097A1F4A2
:100A500020813181820F931F2091C0023091C10209
:100A60002817390709F061C0F093C102E093C00272
:100A7000DF91CF910895EA01CE17DF07E8F54A81AB
:100A80005B819E0141155105B1F7E901FB83EA83C2
:100A900049915991C40FD51FEC17FD0761F480816E
:100AA00091810296840F951FE90199838883828141
:100AB00093819B838A83F0E0E0E012968D919C9174
:100AC00013970097B9F52D913C911197CD0102969E
:100AD000820F931F2091C0023091C102281739075D
:100AE00039F6309751F51092C3021092C202B093BA
:100AF000C102A093C002BCCFD383C2834081518185
:100B0000840F951FC817D90761F44E5F5F4F888126
:100B10009981480F591F518340838A819B81938318
:100B200082832115310509F0B0CFF093C302E09321
:100B3000C2029ECFFD01DC01C0CF13821282D7CF4B
:100B40004F925F926F927F928F929F92AF92BF92DD
:100B5000CF92DF92EF92FF920F931F93CF93DF9389
:100B60008C01009799F4CB01DF91CF911F910F91E8
:100B7000FF90EF90DF90CF90BF90AF909F908F90BD
:100B80007F906F905F904F900C947B04FC01E60F78
:100B9000F71F9C0122503109E217F30708F4AEC099
:100BA000D901CD91DC911197C617D70720F1C53037
:100BB000D10578F0CE0104978617970750F0C61B31
:100BC000D70B2297C193D1936D937C93CF010E9451
:100BD0001705C801DF91CF911F910F91FF90EF9002
:100BE000DF90CF90BF90AF909F908F907F906F904D
:100BF0005F904F9008955B01AC1ABD0A4C018C0EBA
:100C00009D1EA091C202B091C302512C412CF12C27
:100C1000E12C109731F58091C0029091C1028815A6
:100C2000990509F05CC04616570608F058C0809137
:100C3000000290910102009741F48DB79EB7409158
:100C4000040250910502841B950BE817F90708F080
:100C500055C0F093C102E093C002F9017183608333
:100C6000B8CF8D919C91119712966C901297139614
:100C70007C901397A815B90559F56C0142E0C40E94
:100C8000D11CCA14DB0420F1AC014A195B09DA015A
:100C90001296159780F06282738251834083D90146
:100CA0006D937C93E114F10471F0D7011396FC93DA
:100CB000EE9312978ECF22968C0F9D1FF901918390
:100CC0008083F301EFCFF093C302E093C20281CFA0
:100CD0004816590608F42C017D01D3019ACFCB01A7
:100CE0000E947B047C01009749F0AE01B8010E948C
:100CF0008106C8010E94170587016BCF10E000E054
:100D000068CFFB01DC0102C001900D9241505040C0
:100D1000D8F70895FB01DC0101900D920020E1F766
:060D20000895F894FFCFD6
:100D26000000C4028000000000008C01B600E30051
:0A0D3600D9015401F200460100004B
:00000001FF
