:100000000C94A1000C94D2000C94D2000C94D20059
:100010000C94D2000C94D2000C94D2000C94D20018
:100020000C94D2000C94D2000C94D2000C94D20008
:100030000C94D2000C94D2000C94D2000C94D200F8
:100040000C94D2000C94D2000C94D2000C94D200E8
:100050000C94D2000C94D2000C94D2000C94F502B3
:100060000C94D2000C94BF020C9495020C94D20014
:100070000C94D2000C94D2000C94D2000C94D200B8
:100080000C94D2000C94D2000C94D2000C94D200A8
:100090000C94D2000C94D2000C94D2000C94D20098
:1000A0000C94D2000C94D2000C94D2000C94D20088
:1000B0000C94D2000C94D2000C94D2000C94D20078
:1000C0000C94D2000C94D2000C94D2000C94D20068
:1000D0000C94D2000C94D2000C94D2000C94D20058
:1000E0000C94D2000C946A040C9410010C947201CC
:1000F0000C94D4000C94F7010C94AA010C94010107
:100100000C9464014E414E494E495459494E46CDD6
:10011000CCCC3D0AD7233C17B7D13877CC2B3295BE
:1001200095E6241FB14F0A000020410000C842009C
:10013000401C4620BCBE4CCA1B0E5AAEC59D740066
:100140006A0411241FBECFEFD1E2DEBFCDBF00E0B5
:100150000CBF22E0AAE1B2E001C01D92A63CB207AA
:10016000E1F712E0A0E0B2E0E6EFF2E100E00BBF61
:1001700002C007900D92AA31B107D9F710E0C1EA89
:10018000D0E000E006C021970109802FFE010E9407
:100190005B07C03AD10780E00807A9F70E943F0338
:1001A0000C9479090C940000AF92BF92CF92DF9229
:1001B000EF92FF920F931F93CF93DF936C017B011C
:1001C0008B01040F151FEB015E01AE18BF08C017AD
:1001D000D10759F06991D601ED91FC910190F08120
:1001E000E02DC6011995892B79F7C501DF91CF91D3
:1001F0001F910F91FF90EF90DF90CF90BF90AF9045
:100200000895FC01538D448D252F30E0842F90E01C
:10021000821B930B541710F0CF9608950197089501
:10022000FC01918D828D981761F0A28DAE0FBF2FCA
:10023000B11D5D968C91928D9F5F9F73928F90E020
:1002400008958FEF9FEF08952FB7F89480911F02C4
:1002500090912002A0912102B09122022FBF8093A1
:100260002B0290932C02A0932D02B0932E0283E2D6
:1002700092E00E94100197FF26C02FB7F89480915A
:100280001F0290912002A0912102B09122022FBF63
:1002900040912B0250912C0260912D0270912E0200
:1002A000841B950BA60BB70B409127025091280297
:1002B0006091290270912A0284179507A607B70753
:1002C000B0F28FEF9FEF0895FC01918D828D98170A
:1002D00031F0828DE80FF11D858D90E008958FEF4C
:1002E0009FEF0895FC01918D228D892F90E0805C15
:1002F0009F4F821B91098F739927089583E292E0A3
:100300000E94720121E0892B09F420E0822F0895D8
:10031000FC01A48DA80FB92FB11DA35ABF4F2C917A
:10032000848D90E001968F739927848FA689B78971
:100330002C93A089B1898C91837080648C93938D68
:10034000848D981306C00288F389E02D80818F7D0B
:1003500080830895EF92FF920F931F93CF93DF93C3
:10036000EC0181E0888F9B8D8C8D98131AC0E889F1
:10037000F989808185FF15C09FB7F894EE89FF89C0
:100380006083E889F98980818370806480839FBF5E
:1003900081E090E0DF91CF911F910F91FF90EF905E
:1003A0000895F62E0B8D10E00F5F1F4F0F7311276E
:1003B000E02E8C8D8E110CC00FB607FCFACFE889A9
:1003C000F989808185FFF5CFCE010E948801F1CFA8
:1003D000EB8DEC0FFD2FF11DE35AFF4FF0829FB71D
:1003E000F8940B8FEA89FB8980818062CFCFCF930D
:1003F000DF93EC01888D8823B9F0AA89BB89E8894D
:10040000F9898C9185FD03C0808186FD0DC00FB6F2
:1004100007FCF7CF8C9185FFF2CF808185FFEDCF70
:10042000CE010E948801E9CFDF91CF91089580E04D
:1004300090E0892B29F00E947E0181110E9400002A
:1004400080E090E0892B49F080E090E0892B29F052
:100450000E94000081110E94000080E090E0892B42
:1004600049F080E090E0892B29F00E940000811182
:100470000E94000080E090E0892B49F080E090E04D
:10048000892B29F00E94000081110C94000008952E
:100490003FB7F89480911B0290911C02A0911D021D
:1004A000B0911E0226B5A89B05C02F3F19F00196FA
:1004B000A11DB11D3FBFBA2FA92F982F8827BC01BE
:1004C000CD01620F711D811D911D42E0660F771FE6
:1004D000881F991F4A95D1F708950F931F93CF93C3
:1004E000DF93EC0188819981009759F02A813B8143
:1004F0002617370730F081E0DF91CF911F910F91E0
:1005000008958B016F5F7F4F0E948808009759F014
:10051000998388831B830A832C813D81232B59F780
:10052000FC011082E8CF80E0E7CF1F920F920FB658
:100530000F9211240BB60F922F933F934F935F931B
:100540006F937F938F939F93AF93BF93EF93FF939B
:1005500083E292E00E948801FF91EF91BF91AF91F9
:100560009F918F917F916F915F914F913F912F91CB
:100570000F900BBE0F900FBE0F901F9018951F92FB
:100580000F920FB60F9211240BB60F922F938F93E9
:100590009F93EF93FF93E0913302F09134028081B7
:1005A000E0913902F0913A0282FD1DC09081809164
:1005B0003C028F5F8F7320913D02821741F0E091E2
:1005C0003C02F0E0ED5DFD4F958F80933C02FF9182
:1005D000EF919F918F912F910F900BBE0F900FBEB7
:1005E0000F901F9018958081F2CF1F920F920FB637
:1005F0000F9211242F933F938F939F93AF93BF93A9
:1006000080911F0290912002A0912102B0912202BC
:1006100030911A0223E0230F2D3758F50196A11DC2
:10062000B11D20931A0280931F0290932002A09381
:100630002102B093220280911B0290911C02A09192
:100640001D02B0911E020196A11DB11D80931B02D7
:1006500090931C02A0931D02B0931E02BF91AF9114
:100660009F918F913F912F910F900FBE0F901F90F0
:10067000189526E8230F0296A11DB11DD2CFCF9366
:10068000DF9300D000D01F921F92CDB7DEB77894D1
:1006900084B5826084BD84B5816084BD85B5826087
:1006A00085BD85B5816085BD80916E008160809338
:1006B0006E001092810080918100826080938100A1
:1006C00080918100816080938100809180008160B1
:1006D000809380008091B10084608093B10080910C
:1006E000B00081608093B00080919100826080931F
:1006F00091008091910081608093910080919000A1
:100700008160809390008091A10082608093A1001D
:100710008091A10081608093A1008091A000816000
:100720008093A000809121018260809321018091BB
:10073000210181608093210180912001816080935B
:10074000200180917A00846080937A0080917A0001
:10075000826080937A0080917A00816080937A0031
:1007600080917A00806880937A001092C100E091B5
:100770003302F091340282E08083E0912F02F09105
:1007800030021082E0913102F09132028FEC8083CE
:1007900010923B02E0913702F091380286E08083AC
:1007A000E0913502F0913602808180618083E09192
:1007B0003502F0913602808188608083E0913502B5
:1007C000F0913602808180688083E0913502F0915B
:1007D000360280818F7D808383E292E00E947201E5
:1007E000181619060CF04FC01A8219821C821B823F
:1007F0001E821D8270E060E0CE0101960E946D02B3
:1008000029813A8181112BC02115310519F0C901C7
:100810000E94FF071A8219821E821D821C821B827F
:100820000E94240197FD23C08F8318860D811E81AD
:100830000F5F1F4FB801CE0101960E946D02882301
:1008400079F329813A818D819E81BE01695F7F4F55
:10085000820F931F0E9472091E830D83E1CF1E82B7
:100860001D8268E172E0C9010E947209D9CF8981B5
:100870009A81009711F00E94970489819A810097CC
:1008800011F00E94FF070E9448024B015C0184E6C0
:10089000C82ED12CE12CF12C0E944802681979094C
:1008A0008A099B09683E734081059105A8F321E000
:1008B000C21AD108E108F10888EE880E83E0981E7C
:1008C000A11CB11CC114D104E104F10429F70E9458
:1008D000170282CFE3E2F2E01382128288EE93E005
:1008E000A0E0B0E084839583A683B7838AE092E09A
:1008F0009183808385EC90E09587848784EC90E0F9
:100900009787868780EC90E0918B808B81EC90E0DC
:10091000938B828B82EC90E0958B848B86EC90E0BD
:10092000978B868B118E128E138E148E08956627E8
:1009300077270C949B048F929F92AF92BF92CF9295
:10094000DF92EF92FF920F931F93CF93DF935C019F
:100950007B016115710519F0DB018D939C93850175
:100960000F5F1F4FF501D0818D2F90E00E94F90598
:100970006C01892BB9F5DD32B9F50F5F1F4FD50139
:100980001196DC91C1E05801F1E0AF1AB10843E0E3
:1009900050E06CE071E0C5010E940206892B69F508
:1009A000680182E0C80ED11C45E050E067E071E0CC
:1009B000C6010E940206892B21F4680197E0C90E46
:1009C000D11CE114F10419F0D701CD92DC9260E062
:1009D00070E080E89FEFC111FFC060E070E080E848
:1009E0009FE7FAC05801BBCFDB3229F485010E5FC7
:1009F0001F4FF501D181C0E0C6CF43E050E064E075
:100A000071E0C5010E940206892BE9F0F80110E0AF
:100A100000E020E030E0A9015F01B0ED8B2E8D0EEB
:100A200089E08815C8F19C2E689491F88C2F887005
:100A3000C2FF16C0811102C00F5F1F4F3196D50152
:100A4000DC91C92DE9CFE114F10429F00E5F1F4FAD
:100A5000F7011183008360E070E080EC9FE7BCC089
:100A6000882311F001501109A5E0B0E00E94410770
:100A70009B01AC01220F331F441F551F280D311D50
:100A8000411D511D283999E93907490799E159074D
:100A9000A8F2C6609C2ED2CFAEEF8A1206C0C3FD6C
:100AA0003CC09C2E689493F8C9CFDF7DD534A9F55E
:100AB00080818D3239F4C061DF011296818162E05C
:100AC00070E006C0DF018B32C1F3119661E070E087
:100AD00080535D01A61AB70A8A30F8F4E0E8CE1612
:100AE000ECE0DE065CF4B601660F771F660F771F39
:100AF000C60ED71ECC0CDD1CC80ED11C5D01FFEF4D
:100B0000AF1ABF0A8C9180538A30A8F1C4FF03C08A
:100B1000D194C194D1080C0D1D1DC1FF09C0E11471
:100B2000F10431F081E0A81AB108D701AD92BC926E
:100B3000CA01B9010E941F06C370C33009F490585E
:100B40004B015C0120E030E0A9010E941A068823D5
:100B500009F440C0CBE3D1E017FF05C01195019522
:100B60001109C3E2D1E06E01B8E1CB1AD10880E2ED
:100B7000E82EF12C0FC0D501B1CFFE0125913591A2
:100B8000459154910E191F09C501B4010E948006B8
:100B90004B015C01D501C4010E151F0574F72497A4
:100BA000F594E794CC16DD06A9F78A2F880F8B2FD2
:100BB000881F8F3F49F020E030E0A901C501B40152
:100BC0000E941A06811106C082E290E09093C10251
:100BD0008093C002C501B401DF91CF911F910F91A5
:100BE000FF90EF90DF90CF90BF90AF909F908F904D
:100BF000089591110C94ED06803219F089508550BA
:100C0000C8F70895FB01DC014150504088F08D91F8
:100C100081341CF08B350CF4805E659161341CF0DE
:100C20006B350CF4605E861B611171F3990B0895AE
:100C3000881BFCCF0E945C0608F481E00895E894CC
:100C400009C097FB3EF490958095709561957F4F14
:100C50008F4F9F4F9923A9F0F92F96E9BB279395C2
:100C6000F695879577956795B795F111F8CFFAF4D2
:100C7000BB0F11F460FF1BC06F5F7F4F8F4F9F4F03
:100C800016C0882311F096E911C0772321F09EE861
:100C9000872F762F05C0662371F096E8862F70E0C7
:100CA00060E02AF09A95660F771F881FDAF7880FA1
:100CB0009695879597F90895990F0008550FAA0BF7
:100CC000E0E8FEEF16161706E807F907C0F012165F
:100CD0001306E407F50798F0621B730B840B950B62
:100CE00039F40A2661F0232B242B252B21F40895B7
:100CF0000A2609F4A140A6958FEF811D811D089554
:100D00000E9493060C9407070E94F90638F00E948F
:100D1000000720F0952311F00C94F0060C94F606D1
:100D200011240C943B070E94180770F3959FC1F3A0
:100D3000950F50E0551F629FF001729FBB27F00D89
:100D4000B11D639FAA27F00DB11DAA1F649F6627DE
:100D5000B00DA11D661F829F2227B00DA11D621F2D
:100D6000739FB00DA11D621F839FA00D611D221FE7
:100D7000749F3327A00D611D231F849F600D211DCB
:100D8000822F762F6A2F11249F5750409AF0F1F04E
:100D900088234AF0EE0FFF1FBB1F661F771F881FB7
:100DA00091505040A9F79E3F510580F00C94F006F9
:100DB0000C943B075F3FE4F3983ED4F38695779518
:100DC0006795B795F795E7959F5FC1F7FE2B880F5D
:100DD000911D9695879597F90895992788270895E5
:100DE00097F99F6780E870E060E008959FEF80ECDE
:100DF000089500240A941616170618060906089581
:100E000000240A9412161306140605060895092EE6
:100E10000394000C11F4882352F0BB0F40F4BF2B55
:100E200011F460FF04C06F5F7F4F8F4F9F4F089595
:100E300057FD9058440F551F59F05F3F71F047958B
:100E4000880F97FB991F61F09F3F79F08795089570
:100E5000121613061406551FF2CF4695F1DF08C08F
:100E6000161617061806991FF1CF869571056105AC
:100E700008940895E894BB2766277727CB0197F954
:100E800008950E944C07A59F900DB49F900DA49FBC
:100E9000800D911D11240895A29FB001B39FC00140
:100EA000A39F700D811D1124911DB29F700D811D96
:100EB0001124911D0895EE0FFF1F881F8BBF07900F
:100EC000F691E02D19940F931F93CF93DF93823007
:100ED000910510F482E090E0E091C402F091C50227
:100EE00030E020E0B0E0A0E0309799F42115310522
:100EF00009F44AC0281B390B24303105D8F58A8102
:100F00009B816115710589F1FB0193838283FE0149
:100F100011C0408151810281138148175907E0F0C7
:100F20004817590799F4109761F012960C9312978D
:100F300013961C933296CF01DF91CF911F910F91A1
:100F400008950093C4021093C502F4CF2115310512
:100F500051F04217530738F0A901DB019A01BD0196
:100F6000DF01F801C1CFEF01F9CF9093C502809363
:100F7000C402CDCFFE01E20FF31F81939193225063
:100F8000310939832883D7CF2091C2023091C3021F
:100F9000232B41F420910202309103023093C302CB
:100FA0002093C202209100023091010221153105E7
:100FB00041F42DB73EB74091040250910502241B25
:100FC000350BE091C202F091C302E217F307A0F4DF
:100FD0002E1B3F0B2817390778F0AC014E5F5F4F8F
:100FE0002417350748F04E0F5F1F5093C3024093FC
:100FF000C202819391939FCFF0E0E0E09CCFCF932A
:10100000DF930097E9F0FC01329713821282A091DE
:10101000C402B091C502ED0130E020E01097A1F4C8
:1010200020813181820F931F2091C2023091C3022F
:101030002817390709F061C0F093C302E093C20298
:10104000DF91CF910895EA01CE17DF07E8F54A81D5
:101050005B819E0141155105B1F7E901FB83EA83EC
:1010600049915991C40FD51FEC17FD0761F4808198
:1010700091810296840F951FE9019983888382816B
:1010800093819B838A83F0E0E0E012968D919C919E
:1010900013970097B9F52D913C911197CD010296C8
:1010A000820F931F2091C2023091C3022817390783
:1010B00039F6309751F51092C5021092C402B093E0
:1010C000C302A093C202BCCFD383C28340815181AB
:1010D000840F951FC817D90761F44E5F5F4F888151
:1010E0009981480F591F518340838A819B81938343
:1010F00082832115310509F0B0CFF093C502E0934A
:10110000C4029ECFFD01DC01C0CF13821282D7CF73
:101110004F925F926F927F928F929F92AF92BF9207
:10112000CF92DF92EF92FF920F931F93CF93DF93B3
:101130008C01009799F4CB01DF91CF911F910F9112
:10114000FF90EF90DF90CF90BF90AF909F908F90E7
:101150007F906F905F904F900C946307FC01E60FB7
:10116000F71F9C0122503109E217F30708F4AEC0C3
:10117000D901CD91DC911197C617D70720F1C53061
:10118000D10578F0CE0104978617970750F0C61B5B
:10119000D70B2297C193D1936D937C93CF010E947B
:1011A000FF07C801DF91CF911F910F91FF90EF9042
:1011B000DF90CF90BF90AF909F908F907F906F9077
:1011C0005F904F9008955B01AC1ABD0A4C018C0EE4
:1011D0009D1EA091C402B091C502512C412CF12C4E
:1011E000E12C109731F58091C2029091C3028815CD
:1011F000990509F05CC04616570608F058C0809162
:10120000000290910102009741F48DB79EB7409182
:10121000040250910502841B950BE817F90708F0AA
:1012200055C0F093C302E093C202F9017183608359
:10123000B8CF8D919C91119712966C90129713963E
:101240007C901397A815B90559F56C0142E0C40EBE
:10125000D11CCA14DB0420F1AC014A195B09DA0184
:101260001296159780F06282738251834083D90170
:101270006D937C93E114F10471F0D7011396FC9304
:10128000EE9312978ECF22968C0F9D1FF9019183BA
:101290008083F301EFCFF093C502E093C40281CFC6
:1012A0004816590608F42C017D01D3019ACFCB01D1
:1012B0000E9463077C01009749F0AE01B8010E94CB
:1012C0006909C8010E94FF0787016BCF10E000E0A9
:1012D00068CFFB01DC0102C001900D9241505040EB
:1012E000D8F70895FB01DC0101900D920020E1F791
:0612F0000895F894FFCF01
:1012F6000000C602800000000000AA01D40001011F
:0A130600F7017201100164010000FC
:00000001FF
