:100000000C9483000C94B4000C94B4000C94B400D1
:100010000C94B4000C94B4000C94B4000C94B40090
:100020000C94B4000C94B4000C94B4000C94B40080
:100030000C94B4000C94B4000C94B4000C94B40070
:100040000C94B4000C94B4000C94B4000C94B40060
:100050000C94B4000C94B4000C94B4000C9484037D
:100060000C94B4000C944E030C9424030C94B40030
:100070000C94B4000C94B4000C94B4000C94B40030
:100080000C94B4000C94B4000C94B4000C94B40020
:100090000C94B4000C94B4000C94B4000C94B40010
:1000A0000C94B4000C94B4000C94B4000C94B40000
:1000B0000C94B4000C94B4000C94B4000C94B400F0
:1000C0000C94B4000C94B4000C94B4000C94B400E0
:1000D0000C94B4000C94B4000C94B4000C94B400D0
:1000E0000C94B4000C9494050C94F2000C945401FC
:1000F0000C94B6000C94D9010C948C010C94E30080
:100100000C944601940511241FBECFEFD1E2DEBF4F
:10011000CDBF00E00CBF22E0A8E2B2E001C01D921A
:10012000A63DB207E1F712E0A0E0B2E0E2E1F4E1BF
:1001300000E00BBF02C007900D92A832B107D9F7BB
:1001400010E0C3E8D0E000E006C021970109802F4D
:10015000FE010E94E907C238D10780E00807A9F72D
:100160000E94CE030C94070A0C940000AF92BF9239
:10017000CF92DF92EF92FF920F931F93CF93DF9373
:100180006C017B018B01040F151FEB015E01AE18A2
:10019000BF08C017D10759F06991D601ED91FC91C4
:1001A0000190F081E02DC6011995892B79F7C501E1
:1001B000DF91CF911F910F91FF90EF90DF90CF9043
:1001C000BF90AF900895FC01538D448D252F30E0F2
:1001D000842F90E0821B930B541710F0CF96089554
:1001E00001970895FC01918D828D981761F0A28D81
:1001F000AE0FBF2FB11D5D968C91928D9F5F9F7347
:10020000928F90E008958FEF9FEF08952FB7F894A5
:100210008091310290913202A0913302B091340268
:100220002FBF80933D0290933E02A0933F02B09374
:10023000400285E392E00E94F20097FF26C02FB7AC
:10024000F8948091310290913202A0913302B091E2
:1002500034022FBF40913D0250913E0260913F0217
:1002600070914002841B950BA60BB70B409139028D
:1002700050913A0260913B0270913C0284179507BD
:10028000A607B707B0F28FEF9FEF0895FC01918D9D
:10029000828D981731F0828DE80FF11D858D90E0E9
:1002A00008958FEF9FEF0895FC01918D228D892F86
:1002B00090E0805C9F4F821B91098F73992708956E
:1002C00085E392E00E94540121E0892B09F420E0AB
:1002D000822F0895FC01A48DA80FB92FB11DA35A38
:1002E000BF4F2C91848D90E001968F739927848F56
:1002F000A689B7892C93A089B1898C918370806479
:100300008C93938D848D981306C00288F389E02D19
:1003100080818F7D80830895EF92FF920F931F93CA
:10032000CF93DF93EC0181E0888F9B8D8C8D9813A8
:100330001AC0E889F989808185FF15C09FB7F894B4
:10034000EE89FF896083E889F98980818370806400
:1003500080839FBF81E090E0DF91CF911F910F914B
:10036000FF90EF900895F62E0B8D10E00F5F1F4F5A
:100370000F731127E02E8C8D8E110CC00FB607FC69
:10038000FACFE889F989808185FFF5CFCE010E94F7
:100390006A01F1CFEB8DEC0FFD2FF11DE35AFF4FFA
:1003A000F0829FB7F8940B8FEA89FB898081806285
:1003B000CFCFCF93DF93EC01888D8823B9F0AA8942
:1003C000BB89E889F9898C9185FD03C0808186FD10
:1003D0000DC00FB607FCF7CF8C9185FFF2CF80815F
:1003E00085FFEDCFCE010E946A01E9CFDF91CF9169
:1003F000089580E090E0892B29F00E94600181112E
:100400000E94000080E090E0892B49F080E090E0BD
:10041000892B29F00E94000081110E94000080E0D9
:1004200090E0892B49F080E090E0892B29F00E9430
:10043000000081110E94000080E090E0892B49F0CB
:1004400080E090E0892B29F00E94000081110C943B
:10045000000008953FB7F8948091290290912A02F4
:10046000A0912B02B0912C0226B5A89B05C02F3F6E
:1004700019F00196A11DB11D3FBFBA2FA92F982FCA
:100480008827BC01CD01620F711D811D911D42E0C5
:10049000660F771F881F991F4A95D1F70895FC01B1
:1004A00001900020E9F73197AF01481B590BBC01BF
:1004B00085E392E00C94B6008F929F92AF92BF9228
:1004C0000F931F93CF93DF93CDB7DEB7A1970FB6EE
:1004D000F894DEBF0FBECDBF19A2423008F44AE047
:1004E0008E010F5D1F4F842E912CB12CA12CA501E4
:1004F00094010E94C707E62FB901CA01EA30F4F45B
:10050000E05DD801EE938D01232B242B252B79F769
:1005100090E080E0109719F0CD010E944F02A19663
:100520000FB6F894DEBF0FBECDBFDF91CF911F9104
:100530000F91BF90AF909F908F900895E95CE1CFAD
:100540000F931F93CF93DF93EC01888199810097DC
:1005500059F02A813B812617370730F081E0DF917F
:10056000CF911F910F9108958B016F5F7F4F0E9474
:100570001609009759F0998388831B830A832C817D
:100580003D81232B59F7FC011082E8CF80E0E7CFB3
:10059000EF92FF920F931F93CF93DF931F921F92BF
:1005A000CDB7DEB78C01FC0111821082138212825A
:1005B0001582148270E060E00E94A002F8012081A0
:1005C000318181112FC02115310519F0C9010E9417
:1005D0008D08F80111821082158214821382128212
:1005E0000E94060197FD26C089831A82F801E480E3
:1005F000F580FFEFEF1AFF0AB701C8010E94A002C1
:10060000882371F3F8012081318184819581BE01B5
:100610006F5F7F4F820F931F0E94000AF801F582DF
:10062000E482DECF1582148266E272E0C9010E9484
:10063000000AD6CFC8010F900F90DF91CF911F9184
:100640000F91FF90EF9008951F920F920FB60F92A7
:1006500011240BB60F922F933F934F935F936F9399
:100660007F938F939F93AF93BF93EF93FF9385E314
:1006700092E00E946A01FF91EF91BF91AF919F912B
:100680008F917F916F915F914F913F912F910F903B
:100690000BBE0F900FBE0F901F9018951F920F92D8
:1006A0000FB60F9211240BB60F922F938F939F9337
:1006B000EF93FF93E0914502F09146028081E09133
:1006C0004B02F0914C0282FD1DC0908180914E0240
:1006D0008F5F8F7320914F02821741F0E0914E029D
:1006E000F0E0EB5CFD4F958F80934E02FF91EF9110
:1006F0009F918F912F910F900BBE0F900FBE0F9077
:100700001F9018958081F2CF1F920F920FB60F9213
:1007100011242F933F938F939F93AF93BF93809117
:10072000310290913202A0913302B09134023091A3
:10073000280223E0230F2D3758F50196A11DB11D86
:10074000209328028093310290933202A0933302C7
:10075000B09334028091290290912A02A0912B0239
:10076000B0912C020196A11DB11D80932902909396
:100770002A02A0932B02B0932C02BF91AF919F91BC
:100780008F913F912F910F900FBE0F901F90189552
:1007900026E8230F0296A11DB11DD2CFCF93DF9380
:1007A00000D000D0CDB7DEB7789484B5826084BD28
:1007B00084B5816084BD85B5826085BD85B5816065
:1007C00085BD80916E00816080936E0010928100E3
:1007D000809181008260809381008091810081609E
:1007E000809381008091800081608093800080915F
:1007F000B10084608093B1008091B00081608093EB
:10080000B00080919100826080939100809191006E
:10081000816080939100809190008160809390002E
:100820008091A10082608093A1008091A1008160ED
:100830008093A1008091A00081608093A0008091AE
:100840002101826080932101809121018160809348
:1008500021018091200181608093200180917A00A4
:10086000846080937A0080917A00826080937A001D
:1008700080917A00816080937A0080917A0080680C
:1008800080937A001092C100E0914502F0914602F7
:1008900082E08083E0914102F09142021082E09177
:1008A0004302F09144028FEC808310924D02E0915C
:1008B0004902F0914A0286E08083E0914702F0917C
:1008C0004802808180618083E0914702F091480274
:1008D000808188608083E0914702F09148028081A6
:1008E00080688083E0914702F091480280818F7D8B
:1008F000808385E392E00E945401892BD1F3CE01DD
:1009000001960E94C80209811A8160E070E0CB0163
:100910000115110519F0C8010E94C1050E940406C5
:100920006B017C01C0922D02D0922E02E0922F0228
:10093000F09230020115110519F0C8010E948D08CE
:1009400085E392E00E945401892BD1F3CE010196F8
:100950000E94C80209811A8160E070E0CB01011594
:10096000110519F0C8010E94C1050E940406A701E3
:1009700096010E9422076B017C01C0922D02D09249
:100980002E02E0922F02F09230020115110519F0AB
:10099000C8010E948D08A7019601C701B6010E94F7
:1009A000C207882379F188E192E00E944F0284E235
:1009B00092E00E944F020E942A024B015C0184E6F1
:1009C000C82ED12CE12CF12C0E942A026819790939
:1009D0008A099B09683E734081059105A8F321E0CF
:1009E000C21AD108E108F10888EE880E83E0981E4B
:1009F000A11CB11CC114D104E104F10429F70E9427
:100A0000F90177CF46015701E894B7F82FEF3FEF90
:100A10004FE75FE7C501B4010E94C20781110DC015
:100A20002FEF3FEF4FE75FE7C501B4010E94FD05DF
:100A300018161CF48CE192E0B8CF2FEF3FEF4FE790
:100A40005FE4C701B6010E94BD0718161CF480E2DE
:100A500092E0ABCF2FEF3FEF4FE75FECC701B6015E
:100A60000E94FD0587FDF3CF20E030E0A901C7011A
:100A7000B6010E94FD0587FF09C06DE285E392E0A3
:100A80000E948C01F7FAF094F7F8F0942AE037ED21
:100A900043EA5BE3C701B6010E9422074B015C01F8
:100AA0000E948E076B017C010E9402069B01AC0133
:100AB000C501B4010E9421074B015C014AE0C70156
:100AC000B6010E945C026EE285E392E00E948C0116
:100AD00020E030E040E251E4C501B4010E94630629
:100AE0004B015C010E948E076B01F12CE12C4AE066
:100AF000C701B6010E945C02C701B6010E9402064E
:100B00009B01AC01C501B4010E94210720E030E047
:100B100040E251E40E9463060E948E0790E080E06C
:100B20004AE00E945C0243CFE5E3F2E013821282C6
:100B300088EE93E0A0E0B0E084839583A683B7833A
:100B40008AE092E09183808385EC90E095878487AA
:100B500084EC90E09787868780EC90E0918B808B87
:100B600081EC90E0938B828B82EC90E0958B848B70
:100B700086EC90E0978B868B118E128E138E148EDE
:100B800008951F93FC0199278827BC01E8941191CF
:100B90001032E9F3193010F01E30C8F31B3251F057
:100BA0001D3249F4689406C00E94E805610F711D6A
:100BB000811D911D119110531A30B0F33EF49095A0
:100BC0008095709561957F4F8F4F9F4F1F9108952E
:100BD000592F482F372F262F660F771F881F991FF1
:100BE000660F771F881F991F620F731F841F951F41
:100BF000660F771F881F991F08950E943F0608F40B
:100C000081E00895E89409C097FB3EF490958095A3
:100C1000709561957F4F8F4F9F4F9923A9F0F92FC2
:100C200096E9BB279395F695879577956795B79540
:100C3000F111F8CFFAF4BB0F11F460FF1BC06F5F26
:100C40007F4F8F4F9F4F16C0882311F096E911C038
:100C5000772321F09EE8872F762F05C0662371F059
:100C600096E8862F70E060E02AF09A95660F771F6D
:100C7000881FDAF7880F9695879597F90895990F49
:100C80000008550FAA0BE0E8FEEF16161706E80756
:100C9000F907C0F012161306E407F50798F0621B77
:100CA000730B840B950B39F40A2661F0232B242B4C
:100CB000252B21F408950A2609F4A140A6958FEF6B
:100CC000811D811D08950E9476060C94E7060E94FE
:100CD000D90638F00E94E00620F0952311F00C941C
:100CE000D0060C94D60611240C941B070E94F8061B
:100CF00070F3959FC1F3950F50E0551F629FF0016F
:100D0000729FBB27F00DB11D639FAA27F00DB11D87
:100D1000AA1F649F6627B00DA11D661F829F222710
:100D2000B00DA11D621F739FB00DA11D621F839F97
:100D3000A00D611D221F749F3327A00D611D231F6D
:100D4000849F600D211D822F762F6A2F11249F57BB
:100D500050409AF0F1F088234AF0EE0FFF1FBB1FBE
:100D6000661F771F881F91505040A9F79E3F51057D
:100D700080F00C94D0060C941B075F3FE4F3983E80
:100D8000D4F3869577956795B795F795E7959F5F27
:100D9000C1F7FE2B880F911D9695879597F90895B9
:100DA00097F99F6780E870E060E008959FEF80EC1E
:100DB000089500240A9416161706180609060895C1
:100DC00000240A9412161306140605060895092E27
:100DD0000394000C11F4882352F0BB0F40F4BF2B96
:100DE00011F460FF04C06F5F7F4F8F4F9F4F0895D6
:100DF00057FD9058440F551F59F05F3F71F04795CC
:100E0000880F97FB991F61F09F3F79F087950895B0
:100E1000121613061406551FF2CF4695F1DF08C0CF
:100E2000161617061806991FF1CF869571056105EC
:100E300008940895E894BB2766277727CB0197F994
:100E400008955058BB27AA270E9439070C94E7063B
:100E50000E94D90638F00E94E00620F039F49F3F46
:100E600019F426F40C94D6060EF4E095E7FB0C94E6
:100E7000D006E92F0E94F80658F3BA1762077307E5
:100E80008407950720F079F4A6F50C941A070EF460
:100E9000E0950B2EBA2FA02D0B01B90190010C018A
:100EA000CA01A0011124FF27591B99F0593F50F4A2
:100EB000503E68F11A16F040A22F232F342F4427FA
:100EC000585FF3CF469537952795A795F0405395F2
:100ED000C9F77EF41F16BA0B620B730B840BBAF0C2
:100EE0009150A1F0FF0FBB1F661F771F881FC2F72D
:100EF0000EC0BA0F621F731F841F48F48795779541
:100F00006795B795F7959E3F08F0B0CF9395880FFA
:100F100008F09927EE0F9795879508950E9400078E
:100F200088F09F5798F0B92F9927B751B0F0E1F0AA
:100F3000660F771F881F991F1AF0BA95C9F714C05A
:100F4000B13091F00E941A07B1E008950C941A078D
:100F5000672F782F8827B85F39F0B93FCCF3869593
:100F600077956795B395D9F73EF4909580957095F0
:100F700061957F4F8F4F9F4F08950E943F0608F461
:100F80008FEF08950E943F06880B990B0895A1E208
:100F90001A2EAA1BBB1BFD010DC0AA1FBB1FEE1FF3
:100FA000FF1FA217B307E407F50720F0A21BB30B3E
:100FB000E40BF50B661F771F881F991F1A9469F7BA
:100FC00060957095809590959B01AC01BD01CF0116
:100FD0000895EE0FFF1F881F8BBF0790F691E02D3D
:100FE00019940F931F93CF93DF938230910510F4E0
:100FF00082E090E0E091D402F091D50230E020E070
:10100000B0E0A0E0309799F42115310509F44AC009
:10101000281B390B24303105D8F58A819B81611555
:10102000710589F1FB0193838283FE0111C0408128
:1010300051810281138148175907E0F04817590779
:1010400099F4109761F012960C93129713961C93D3
:101050003296CF01DF91CF911F910F9108950093A8
:10106000D4021093D502F4CF2115310551F0421767
:10107000530738F0A901DB019A01BD01DF01F80136
:10108000C1CFEF01F9CF9093D5028093D402CDCF99
:10109000FE01E20FF31F81939193225031093983AE
:1010A0002883D7CF2091D2023091D302232B41F451
:1010B00020910202309103023093D3022093D20296
:1010C00020910002309101022115310541F42DB724
:1010D0003EB74091040250910502241B350BE0916C
:1010E000D202F091D302E217F307A0F42E1B3F0BBC
:1010F0002817390778F0AC014E5F5F4F241735078A
:1011000048F04E0F5F1F5093D3024093D202819359
:1011100091939FCFF0E0E0E09CCFCF93DF930097D7
:10112000E9F0FC01329713821282A091D402B091AF
:10113000D502ED0130E020E01097A1F4208131814B
:10114000820F931F2091D2023091D30228173907C2
:1011500009F061C0F093D302E093D202DF91CF9106
:101160000895EA01CE17DF07E8F54A815B819E0109
:1011700041155105B1F7E901FB83EA834991599182
:10118000C40FD51FEC17FD0761F480819181029691
:10119000840F951FE90199838883828193819B83C2
:1011A0008A83F0E0E0E012968D919C91139700976E
:1011B000B9F52D913C911197CD010296820F931FA5
:1011C0002091D2023091D3022817390739F630978F
:1011D00051F51092D5021092D402B093D302A0938D
:1011E000D202BCCFD383C28340815181840F951F2B
:1011F000C817D90761F44E5F5F4F88819981480F06
:10120000591F518340838A819B8193838283211557
:10121000310509F0B0CFF093D502E093D4029ECF10
:10122000FD01DC01C0CF13821282D7CF4F925F92B3
:101230006F927F928F929F92AF92BF92CF92DF92E6
:10124000EF92FF920F931F93CF93DF938C01009740
:1012500099F4CB01DF91CF911F910F91FF90EF9007
:10126000DF90CF90BF90AF909F908F907F906F90C6
:101270005F904F900C94F107FC01E60FF71F9C0163
:1012800022503109E217F30708F4AEC0D901CD911D
:10129000DC911197C617D70720F1C530D10578F03A
:1012A000CE0104978617970750F0C61BD70B2297DD
:1012B000C193D1936D937C93CF010E948D08C80197
:1012C000DF91CF911F910F91FF90EF90DF90CF9022
:1012D000BF90AF909F908F907F906F905F904F9056
:1012E00008955B01AC1ABD0A4C018C0E9D1EA091A5
:1012F000D402B091D502512C412CF12CE12C109745
:1013000031F58091D2029091D3028815990509F0A8
:101310005CC04616570608F058C0809100029091B4
:101320000102009741F48DB79EB74091040250919D
:101330000502841B950BE817F90708F055C0F093D8
:10134000D302E093D202F90171836083B8CF8D910B
:101350009C91119712966C90129713967C9013970C
:10136000A815B90559F56C0142E0C40ED11CCA1488
:10137000DB0420F1AC014A195B09DA0112961597DA
:1013800080F06282738251834083D9016D937C9394
:10139000E114F10471F0D7011396FC93EE931297C8
:1013A0008ECF22968C0F9D1FF90191838083F301CC
:1013B000EFCFF093D502E093D40281CF48165906BF
:1013C00008F42C017D01D3019ACFCB010E94F107D3
:1013D0007C01009749F0AE01B8010E94F709C801ED
:1013E0000E948D0887016BCF10E000E068CFFB0101
:1013F000DC0102C001900D9241505040D8F7089591
:10140000FB01DC0101900D920020E1F70895F894B2
:02141000FFCF0C
:101412000000D6028000000000008C01B600E3004C
:10142200D9015401F20046016E616E00696E6600D8
:081432006F7666000D0A000050
:00000001FF
